:020000040800F2
:100000000000042011230008491B0008511B0008B0
:10001000591B0008611B0008691B00080000000054
:10002000000000000000000000000000711B00083C
:100030007F1B0008000000008D1B00089B1B0008B0
:100040006123000861230008612300086123000880
:100050006123000861230008612300086123000870
:100060006123000861230008A71B00086123000822
:100070006123000861230008612300086123000850
:10008000B51B0008612300086123000861230008F4
:100090006123000861230008612300086123000830
:1000A0006123000861230008612300086123000820
:1000B0006123000861230008612300086123000810
:1000C000612300086123000861230008C91B0008A0
:1000D00061230008612300086123000861230008F0
:1000E00061230008612300086123000861230008E0
:1000F00061230008612300086123000861230008D0
:1001000061230008612300086123000861230008BF
:100110006123000861230008DD1B0008612300083B
:10012000F11B00086123000861230008051C00087A
:100130006123000800000000000000000000000033
:10014000000000000000000000000000191C000872
:10015000612300086123000861230008612300086F
:10016000612300086123000861230008612300085F
:100170006123000861230008000000000000000067
:10018000612300086123000861230008612300083F
:1001900061230008612300080000000061230008BB
:1001A00000000000000000000000000061230008C3
:1001B0006123000861230008000000000000000027
:1001C000000000000000000000000000000000002F
:1001D0000000000000000000000000006123000893
:1001E00010B5054C237833B9044B13B10448AFF371
:1001F00000800123237010BDD40200200000000005
:10020000A40C010808B5034B1BB103490348AFF325
:10021000008008BD00000000D8020020A40C0108E6
:1002200001F0FF01102A2BDB10F0070F08D010F8A7
:10023000013B013A8B422DD010F0070F42B3F6D1AB
:10024000F0B441EA012141EA014122F007047FF0C4
:1002500000070023F0E80256083C85EA010586EA1B
:10026000010685FA47F5A3FA87F586FA47F6A5FA57
:1002700087F68EB9EED1F0BC01F0FF0102F0070263
:1002800032B110F8013B013A83EA010313B1F8D10E
:100290000020704701387047002D06BF35460338EF
:1002A000073815F0010F07D1013015F4807F02BF28
:1002B000013015F4C03F0130F0BC0138704700BF79
:1002C000034613F8012B002AFBD1181A0138704796
:1002D00081F0004102E000BF83F0004330B54FEAF7
:1002E00041044FEA430594EA050F08BF90EA020F64
:1002F0001FBF54EA000C55EA020C7FEA645C7FEAF7
:10030000655C00F0E2804FEA5454D4EB5555B8BF19
:100310006D420CDD2C4480EA020281EA030382EA8A
:10032000000083EA010180EA020281EA0303362D1C
:1003300088BF30BD11F0004F4FEA01314FF4801CEF
:100340004CEA113102D0404261EB410113F0004F01
:100350004FEA03334CEA133302D0524263EB4303B8
:1003600094EA050F00F0A780A4F10104D5F1200E56
:100370000DDB02FA0EFC22FA05F2801841F10001B1
:1003800003FA0EF2801843FA05F359410EE0A5F185
:1003900020050EF1200E012A03FA0EFC28BF4CF0B6
:1003A000020C43FA05F3C01851EBE37101F000456C
:1003B00007D54FF0000EDCF1000C7EEB00006EEB79
:1003C0000101B1F5801F1BD3B1F5001F0CD3490803
:1003D0005FEA30004FEA3C0C04F101044FEA44525A
:1003E00012F5800F80F09A80BCF1004F08BF5FEAE1
:1003F000500C50F1000041EB045141EA050130BDC1
:100400005FEA4C0C404141EB0101013C28BFB1F5D2
:10041000801FE9D291F0000F04BF01460020B1FA1D
:1004200081F308BF2033A3F10B03B3F120020CDAF0
:100430000C3208DD02F1140CC2F10C0201FA0CF0CE
:1004400021FA02F10CE002F11402D8BFC2F1200C33
:1004500001FA02F120FA0CFCDCBF41EA0C019040E9
:10046000E41AA2BF01EB0451294330BD6FEA040432
:100470001F3C1CDA0C340EDC04F11404C4F120021D
:1004800020FA04F001FA02F340EA030021FA04F32F
:1004900045EA030130BDC4F10C04C4F1200220FA86
:1004A00002F001FA04F340EA0300294630BD21FAC4
:1004B00004F0294630BD94F0000F83F4801306BF8A
:1004C00081F480110134013D4EE77FEA645C18BF7E
:1004D0007FEA655C29D094EA050F08BF90EA020F15
:1004E00005D054EA000C04BF1946104630BD91EA0D
:1004F000030F1EBF0021002030BD5FEA545C05D110
:100500004000494128BF41F0004130BD14F580044E
:100510003CBF01F5801130BD01F0004545F0FE41C2
:1005200041F470014FF0000030BD7FEA645C1ABFF7
:10053000194610467FEA655C1CBF0B46024650EA2E
:10054000013406BF52EA033591EA030F41F400215A
:1005500030BD00BF90F0000F04BF0021704730B5E0
:100560004FF4806404F132044FF000054FF00001B5
:1005700050E700BF90F0000F04BF0021704730B576
:100580004FF4806404F1320410F0004548BF40424B
:100590004FF000013EE700BF42004FEAE2014FEAA0
:1005A00031014FEA02701FBF12F07F4393F07F4F7B
:1005B00081F06051704732F07F4208BF704793F07E
:1005C0007F4F04BF41F40021704730B54FF4607491
:1005D00001F0004521F000411CE700BF50EA010294
:1005E00008BF704730B54FF000050AE050EA01023D
:1005F00008BF704730B511F0004502D5404261EBAD
:1006000041014FF4806404F132045FEA915C3FF4ED
:10061000D8AE4FF003025FEADC0C18BF03325FEA8A
:10062000DC0C18BF033202EBDC02C2F1200300FA3B
:1006300003FC20FA02F001FA03FE40EA0E0021FA60
:1006400002F11444BDE600BF70B54FF0FF0C4CF44E
:10065000E06C1CEA11541DBF1CEA135594EA0C0F00
:1006600095EA0C0F00F0DEF82C4481EA030621EA3B
:100670004C5123EA4C5350EA013518BF52EA033576
:1006800041F4801143F4801338D0A0FB02CE4FF028
:100690000005E1FB02E506F00042E0FB03E54FF058
:1006A0000006E1FB03569CF0000F18BF4EF0010E50
:1006B000A4F1FF04B6F5007F64F5407404D25FEA4C
:1006C0004E0E6D4146EB060642EAC62141EA5551FF
:1006D0004FEAC52040EA5E504FEACE2EB4F1FD0C41
:1006E00088BFBCF5E06F1ED8BEF1004F08BF5FEABF
:1006F000500E50F1000041EB045170BD06F0004671
:1007000046EA010140EA020081EA0301B4EB5C041D
:10071000C2BFD4EB0C0541EA045170BD41F4801115
:100720004FF0000E013C00F3AB8014F1360FDEBF3A
:10073000002001F0004170BDC4F10004203C35DA16
:100740000C341BDC04F11404C4F1200500FA05F399
:1007500020FA04F001FA05F240EA020001F000423A
:1007600021F0004110EBD37021FA04F642EB0601B0
:100770005EEA430E08BF20EAD37070BDC4F10C04DA
:10078000C4F1200500FA04F320FA05F001FA04F29E
:1007900040EA020001F0004110EBD37041F100018A
:1007A0005EEA430E08BF20EAD37070BDC4F1200595
:1007B00000FA05F24EEA020E20FA04F301FA05F2FD
:1007C00043EA020321FA04F001F0004121FA04F2A5
:1007D00020EA020000EBD3705EEA430E08BF20EA75
:1007E000D37070BD94F0000F0FD101F000464000AF
:1007F00041EB010111F4801F08BF013CF7D041EA31
:10080000060195F0000F18BF704703F00046520034
:1008100043EB030313F4801F08BF013DF7D043EA05
:100820000603704794EA0C0F0CEA135518BF95EABB
:100830000C0F0CD050EA410618BF52EA4306D1D142
:1008400081EA030101F000414FF0000070BD50EA61
:10085000410606BF1046194652EA430619D094EAEB
:100860000C0F02D150EA013613D195EA0C0F05D1D5
:1008700052EA03361CBF104619460AD181EA030129
:1008800001F0004141F0FE4141F470014FF00000E1
:1008900070BD41F0FE4141F4780170BD70B54FF07C
:1008A000FF0C4CF4E06C1CEA11541DBF1CEA1355FC
:1008B00094EA0C0F95EA0C0F00F0A7F8A4EB0504DE
:1008C00081EA030E52EA03354FEA013100F08880D5
:1008D0004FEA03334FF0805545EA131343EA12639E
:1008E0004FEA022245EA111545EA10654FEA002653
:1008F0000EF000419D4208BF964244F1FD0404F50C
:10090000407402D25B084FEA3202B61A65EB030567
:100910005B084FEA32024FF480104FF4002CB6EB24
:10092000020E75EB030E22BFB61A754640EA0C00A4
:100930005B084FEA3202B6EB020E75EB030E22BFE4
:10094000B61A754640EA5C005B084FEA3202B6EB25
:10095000020E75EB030E22BFB61A754640EA9C00E4
:100960005B084FEA3202B6EB020E75EB030E22BFB4
:10097000B61A754640EADC0055EA060E18D04FEA72
:10098000051545EA16754FEA06164FEAC30343EA12
:1009900052734FEAC2025FEA1C1CC0D111F4801FDF
:1009A0000BD141EA00014FF000004FF0004CB6E7D8
:1009B00011F4801F04BF01430020B4F1FD0C88BF77
:1009C000BCF5E06F3FF6AFAEB5EB030C04BFB6EB82
:1009D000020C5FEA500C50F1000041EB045170BD75
:1009E0000EF0004E4EEA113114EB5C04C2BFD4EBA2
:1009F0000C0541EA045170BD41F480114FF0000E26
:100A0000013C90E645EA060E8DE60CEA135594EAA1
:100A10000C0F08BF95EA0C0F3FF43BAF94EA0C0FA4
:100A20000AD150EA01347FF434AF95EA0C0F7FF419
:100A300025AF104619462CE795EA0C0F06D152EA6D
:100A400003353FF4FDAE1046194622E750EA410651
:100A500018BF52EA43067FF4C5AE50EA41047FF462
:100A60000DAF52EA43057FF4EBAE12E74FF0FF3CC7
:100A700006E000BF4FF0010C02E000BF4FF0010C98
:100A80004DF804CD4FEA410C7FEA6C5C4FEA430C11
:100A900018BF7FEA6C5C1BD001B050EA410C0CBF60
:100AA00052EA430C91EA030F02BF90EA020F0020C2
:100AB000704710F1000F91EA030F58BF994208BF29
:100AC00090422CBFD8176FEAE37040F001007047E6
:100AD0004FEA410C7FEA6C5C02D150EA013C07D13D
:100AE0004FEA430C7FEA6C5CD6D152EA033CD3D088
:100AF0005DF8040B704700BF8446104662468C4682
:100B00001946634600E000BF01B5FFF7B7FF0028B4
:100B100048BF10F1000F01BD4DF808EDFFF7F4FFDD
:100B20000CBF012000205DF808FB00BF4DF808ED68
:100B3000FFF7EAFF34BF012000205DF808FB00BF8B
:100B40004DF808EDFFF7E0FF94BF012000205DF8AD
:100B500008FB00BF4DF808EDFFF7CEFF94BF012062
:100B600000205DF808FB00BF4DF808EDFFF7C4FF5B
:100B700034BF012000205DF808FB00BF4FEA410CA4
:100B80007FEA6C5C02D150EA013C0AD14FEA430C87
:100B90007FEA6C5C02D152EA033C02D14FF00000C4
:100BA00070474FF0010070474FEA410212F5001202
:100BB00015D211D56FF47873B3EB625212D94FEAA4
:100BC000C12343F0004343EA505311F0004F23FA8E
:100BD00002F018BF404270474FF00000704750EAE3
:100BE000013005D111F0004008BF6FF000407047A0
:100BF0004FF00000704700BF4A0011D212F50012FA
:100C000011D20DD56FF47873B3EB62520ED44FEA64
:100C1000C12343F0004343EA505323FA02F07047E4
:100C20004FF00000704750EA013002D14FF0FF3022
:100C300070474FF0000070474FEA4102B2F1E043C5
:100C400024BFB3F5001CDCF1FE5C0DD901F0004CB3
:100C50004FEAC0024CEA5070B2F1004F40EB830003
:100C600008BF20F00100704711F0804F21D113F12F
:100C70003872BCBF01F00040704741F480114FEA68
:100C80005252C2F11802C2F1200C10FA0CF320FAF1
:100C900002F018BF40F001004FEAC1234FEAD3230E
:100CA00003FA0CFC40EA0C0023FA02F34FEA430378
:100CB000CCE77FEA625307D150EA01331EBF4FF001
:100CC000FE4040F44000704701F0004040F0FE401C
:100CD00040F40000704700BF53B94AB9002908BF6B
:100CE00000281CBF4FF0FF314FF0FF3000F0BEB9BD
:100CF000ADF1080C6DE904CE00F03CF8DDF804E03D
:100D0000DDE9022304B0704738B500220023044611
:100D10000D46FFF70BFF28B920462946BDE83840AD
:100D200000F00AB8204605F1004100F005F8404205
:100D300061EB410138BD00BFD0B50C4B0022064627
:100D40000F46FFF781FCFFF757FF0446FFF702FC51
:100D5000074B0022FFF778FC02460B463046394627
:100D6000FFF7BAFAFFF748FF2146D0BD0000F03D7B
:100D70000000F0412DE9F047089D0F4604468C46DF
:100D8000002B48D18A42164661D9B2FA82F34BB1A0
:100D9000C3F1200201FA03FC20FA02F29E4042EA6B
:100DA0000C0C9C404FEA164EB7B2BCFBFEF1220C75
:100DB0000EFB11CC42EA0C4201FB07F0904209D92C
:100DC000B21801F1FF3C80F0EE80904240F2EB80DF
:100DD00002393244121AA4B2B2FBFEF00EFB10220A
:100DE00044EA024400FB07F7A74209D9341900F18D
:100DF000FF3280F0DA80A74240F2D78034440238D4
:100E000040EA0140E41B00211DB1DC400023C5E99C
:100E10000043BDE8F0878B4206D90DB1C5E900015A
:100E200000210846BDE8F087B3FA83F1002948D1D4
:100E3000BB4202D3824200F20781841A67EB0302AD
:100E400001209446002DE4D0C5E9004CE1E7002ADA
:100E500000F09280B2FA82F3002B40F0A8808A1A48
:100E60004FEA164E1FFA86FC0121200CB2FBFEF75A
:100E70000EFB172240EA02420CFB07F0904207D912
:100E8000B21807F1FF3802D2904200F2E2804746E2
:100E9000121AA4B2B2FBFEF00EFB102244EA024486
:100EA0000CFB00FCA44507D9341900F1FF3202D233
:100EB000A44500F2CB801046A4EB0C0440EA0740A6
:100EC000A2E7C1F120068B4022FA06FC4CEA030C93
:100ED00007FA01F420FA06F3F7404FEA1C492343CE
:100EE00000FA01F81FFA8CFEB7FBF9F01C0C09FBA5
:100EF000107744EA074400FB0EF7A74202FA01F21A
:100F00000AD91CEB040400F1FF3A80F09B80A74251
:100F100040F2988002386444E41B9FB2B4FBF9F3BA
:100F200009FB134447EA044403FB0EFEA64509D916
:100F30001CEB040403F1FF3780F08280A6457FD9C3
:100F4000023B644443EA0040A4EB0E04A0FB02E72A
:100F5000BC427346B94663D360D05DB1B8EB0302BF
:100F600064EB090404FA06F622FA01F31E43CC40AE
:100F7000C5E9006400214CE76208480842EAC171F3
:100F80000B0C43EA00438AB242EA0342B3FBF6F198
:100F9000E407B4463746B6461F23B0FBF6F0D21B33
:100FA00041EA004161E7614614E7104628E7C3F1D2
:100FB000200120FA01F29E4027FA01F19F403A43B6
:100FC0004FEA164E1FFA86FCB1FBFEF70EFB171018
:100FD000110C41EA004107FB0CF8884504FA03F4C0
:100FE0003AD9711807F1FF3001D288451FD8A1EB1B
:100FF0000801B1FBFEF808FB0CF70EFB181192B2CA
:1010000042EA0142BA422FD2B21808F1FF31C6D2E9
:10101000BA42C4D2A8F102013244C0E7F0459CD2E2
:10102000BEEB020367EB0C070138B94695E7A6EB68
:1010300008084144B81EB1FBFEF808FB0CF7DCE7DA
:101040003B467FE7504667E70846FBE634440238F4
:1010500032E7023F32441BE7A1EB08013846B1FBFF
:10106000FEF808FB0CF7C8E7414698E7704700BF59
:1010700080B582B000AF1A4B1B6B194A43F4800352
:101080001363174B1B6B03F480037B607B68144B6B
:101090001B6B134A43F400131363114B1B6B03F4D4
:1010A00000133B603B6800220421102001F0B5FAD8
:1010B000102001F0CEFA00220121382001F0ADFA13
:1010C000382001F0C6FA002203213B2001F0A5FAE6
:1010D0003B2001F0BEFA00BF0837BD4680BD00BF0F
:1010E0000038024080B58AB000AF07F11403002237
:1010F0001A605A609A60DA601A612E4B1B6B2D4A97
:1011000043F0800313632B4B1B6B03F080033B61A5
:101110003B69284B1B6B274A43F004031363254BA1
:101120001B6B03F00403FB60FB68224B1B6B214A23
:1011300043F0010313631F4B1B6B03F00103BB6000
:10114000BB681C4B1B6B1B4A43F002031363194B18
:101150001B6B03F002037B607B68012204211648AD
:1011600001F03AFF10237B614FF40413BB610123AC
:10117000FB6107F114031946104801F091FD0423A7
:101180007B610123BB610023FB6103233B6207F109
:1011900014031946084801F083FD002202210A20A9
:1011A00001F03BFA0A2001F054FA00BF2837BD468F
:1011B00080BD00BF00380240000402400008024029
:1011C00080B500AF1B4B1C4A1A601A4B1B4A5A6071
:1011D000184B00229A60174B0122DA60154B00224F
:1011E0001A61144B00225A61124B00229A61114B72
:1011F0000022DA610F4B00221A620E4801F01EFF36
:101200000346002B01D000F0F5FA0021094801F057
:10121000B1FF0346002B01D000F0ECFA0021054895
:1012200001F0F3FF0346002B01D000F0E3FA00BF0A
:1012300080BD00BFF0020020005400400D0300609C
:1012400080B5AAB000AF786007F1940300221A605D
:101250005A609A60DA601A6107F114038022002153
:1012600018460CF0F3F97B681B68224A93423CD184
:101270004FF480437B6100233B6707F1140318465A
:1012800003F0B4FF0346002B01D000F0B3FA1A4B71
:101290001B6B194A43F002031363174B1B6B03F0DC
:1012A00002033B613B694FF44073C7F8943012234B
:1012B000C7F898300023C7F89C300323C7F8A03044
:1012C0000423C7F8A43007F1940319460B4801F032
:1012D000E7FC094B1B6C084A43F400131364064BEC
:1012E0001B6C03F40013FB60FB6800BFA837BD460E
:1012F00080BD00BF0054004000380240000402409E
:101300002DE9B04FAAB00CAF01F02BF800F0F2F9C4
:10131000FFF7E8FEFFF7ACFEFFF752FF00F070FAB0
:1013200000F0ACFA00F032FF00F058FD00F0CCFD08
:1013300000F04EFE0AF07AFB40F6B83001F06EF88D
:10134000012204216C4801F047FE322001F066F8CA
:10135000F52387F8473000220421674801F03CFE5E
:10136000052001F05BF807F147014FF0FF33012240
:10137000624804F030FB07F146014FF0FF330122D1
:101380005E4804F09EFC012204215B4801F024FE2B
:10139000052001F043F84FF4FA6001F03FF897F8A8
:1013A00046301A4697F84630472B01D1544B00E09F
:1013B000544B00931346544A4FF4807153480CF039
:1013C000A9F878677B6F9BB2194650480AF0ECFB8E
:1013D000642001F023F84E2387F844300F2387F868
:1013E000453000220421444801F0F6FD00233B640F
:1013F00002E03B6C01333B643B6C312BF9DD07F1C0
:1014000044014FF0FF3302223C4804F0E4FA012289
:101410000421394801F0E0FD322000F0FFFF1423E1
:1014200087F84430032387F84530002204213248EE
:1014300001F0D2FD0023FB6302E0FB6B0133FB6391
:10144000FB6B312BF9DD07F144014FF0FF33022232
:101450002A4804F0C0FA01220421274801F0BCFD0B
:10146000322000F0DBFF652387F84430082387F83B
:10147000453000220421204801F0AEFD0023BB636B
:1014800002E0BB6B0133BB63BB6B312BF9DD07F1B2
:1014900044014FF0FF330222184804F09CFA012265
:1014A0000421154801F098FD322000F0B7FF184BD9
:1014B0001B78DBB2002B00F00B81154B00221A7059
:1014C00007F1280300221A605A609A60C3F80B20C3
:1014D00007F1180300221A605A609A60C3F80B20C3
:1014E0009D2387F8283000220421034801F074FD71
:1014F00000237B6111E000BF00040240C80400200B
:10150000C00C0108E80C0108040D01084803002084
:10151000440300207B6901337B617B69312BF9DD5A
:1015200007F1180207F128014FF0FF3300930F2352
:101530006A4804F0FEFC01220421694801F04CFDD8
:101540007B7E1BB21B021AB2BB7E1BB21343A7F8F1
:101550007230FB7E1BB21B021AB23B7F1BB21343DD
:10156000A7F870307B7F1BB21B021AB2BB7F1BB285
:101570001343A7F86E30FB7F1BB21B021AB297F819
:1015800020301BB21343A7F86C3097F821301BB200
:101590001B021AB297F822301BB21343A7F86A3025
:1015A00097F823301BB21B021AB297F824301BB2F3
:1015B0001343A7F8683097F825301BB21B021AB204
:1015C00097F826301BB21343A7F86630B7F96A3094
:1015D00007EE903AB8EEE77ADFED426AC7EE267A78
:1015E000C7ED187AB7F9683007EE903AB8EEE77AA7
:1015F000DFED3C6AC7EE267AC7ED177AB7F9663099
:1016000007EE903AB8EEE77ADFED366AC7EE267A53
:10161000C7ED167AB7F9703007EE903AB8EEE77A70
:10162000DFED316AC7EE267AC7ED157AB7F96E306D
:1016300007EE903AB8EEE77ADFED2B6AC7EE267A2E
:10164000C7ED147AB7F96C3007EE903AB8EEE77A46
:10165000DFED256AC7EE267AC7ED137A386EFEF7FE
:101660009BFF04460D46F86DFEF796FF80468946BF
:10167000B86DFEF791FF82468B46786DFEF78CFFC2
:10168000C7E90201386DFEF787FFC7E90001F86C72
:10169000FEF782FF02460B46CDE90A2397ED007B59
:1016A0008DED087B97ED027B8DED067BCDE904ABDC
:1016B000CDE90289CDE900450C4A80210C480BF0A8
:1016C00029FFB864BB6C9BB2194609480AF06CFA52
:1016D0004FF47A7000F0A2FEE9E600BFC8040020D3
:1016E000000402403333834100000045CC0D010863
:1016F0004804002080B594B000AF07F120033022E9
:10170000002118460BF0A2FF07F10C0300221A601B
:101710005A609A60DA601A612A4B1B6C294A43F0BE
:1017200080531364274B1B6C03F08053BB60BB6872
:10173000254B1B68244A43F440431360224B1B682B
:1017400003F440437B607B6801233B624FF48033AA
:101750007B620223BB634FF48003FB6304233B647F
:10176000D8237B640223BB640923FB6407F12003B5
:10177000184603F071F80346002B01D000F03AF848
:1017800003F01AF80346002B01D000F033F80F23C2
:10179000FB6002233B6100237B614FF4A053BB61DC
:1017A0004FF48053FB6107F10C030721184603F047
:1017B000F7FA0346002B01D000F01CF800BF5037A9
:1017C000BD4680BD003802400070004080B483B048
:1017D00000AF0346FB80FB88102B02D1044B012293
:1017E0001A7000BF0C37BD465DF8047B704700BF20
:1017F0004403002080B400AF72B600BF00BFFDE715
:1018000080B500AF1B4B1C4A1A601A4B4FF4827212
:101810005A60184B00229A60164B4FF4E062DA606F
:10182000144B00221A61134B00225A61114B4FF4E2
:1018300000729A610F4B3022DA610E4B00221A625D
:101840000C4B00225A620B4B00229A62094B072272
:10185000DA62084B00221A63064B08225A630548D5
:1018600004F00EF80346002B01D0FFF7C3FF00BFC2
:1018700080BD00BFC80400200030014080B500AF2B
:101880001B4B1C4A1A601A4B4FF482725A60184B59
:1018900000229A60164B4FF4E062DA60144B00228B
:1018A0001A61134B00225A61114B4FF400729A6176
:1018B0000F4B1022DA610E4B00221A620C4B0022F1
:1018C0005A620B4B00229A62094B0722DA62084BDC
:1018D00000221A63064B08225A63054803F0D0FF22
:1018E0000346002B01D0FFF785FF00BF80BD00BF7E
:1018F0002C0500200038004080B58CB000AF786027
:1019000007F11C0300221A605A609A60DA601A61BB
:101910007B681B68704A934240F08F806F4B5B6C12
:101920006E4A43F4805353646C4B5B6C03F48053F6
:10193000BB61BB69694B1B6B684A43F001031363CE
:10194000664B1B6B03F001037B617B69E023FB614A
:1019500002233B6200237B620323BB620523FB62FD
:1019600007F11C0319465E4801F09AF95D4B5E4A87
:101970001A605C4B4FF0C0625A605A4B00229A606A
:10198000584B0022DA60574B4FF480621A61554B76
:1019900000225A61534B00229A61524B0022DA61B5
:1019A000504B4FF400321A624E4B00225A624D489F
:1019B00000F06AFE0346002B01D0FFF71BFF7B6897
:1019C000484A9A65474A7B689363484B484A1A607D
:1019D000464B4FF0C0625A60444B40229A60434BE2
:1019E0000022DA60414B4FF480621A613F4B0022C3
:1019F0005A613E4B00229A613C4B0022DA613B4B1C
:101A00004FF400321A62394B00225A62374800F014
:101A10003BFE0346002B01D0FFF7ECFE7B68334A08
:101A20005A65324A7B68936300220321232000F029
:101A3000F4FD232000F00DFE49E07B681B682D4A71
:101A4000934244D1254B1B6C244A43F480431364D6
:101A5000224B1B6C03F480433B613B691F4B1B6BA8
:101A60001E4A43F0040313631C4B1B6B03F0040377
:101A7000FB60FB68194B1B6B184A43F002031363AE
:101A8000164B1B6B03F00203BB60BB680623FB61B4
:101A900002233B6200237B620323BB620523FB62BC
:101AA00007F11C031946144801F0FAF84FF480635B
:101AB000FB6102233B6200237B620323BB6205239D
:101AC000FB6207F11C0319460C4801F0E9F800BF5E
:101AD0003037BD4680BD00BF0030014000380240B5
:101AE000000002409005002010640240F005002034
:101AF00058640240003800400008024000040240E0
:101B000080B483B000AF0F4B1B6C0E4A43F0805380
:101B100013640C4B1B6C03F080537B607B68094B98
:101B20005B6C084A43F480435364064B5B6C03F4DC
:101B300080433B603B6800BF0C37BD465DF8047BCB
:101B4000704700BF0038024080B400AF00BFFDE71F
:101B500080B400AF00BFFDE780B400AF00BFFDE779
:101B600080B400AF00BFFDE780B400AF00BFFDE769
:101B700080B400AF00BFBD465DF8047B704780B401
:101B800000AF00BFBD465DF8047B704780B400AF76
:101B900000BFBD465DF8047B704780B500AF00F024
:101BA0001DFC00BF80BD80B500AF102001F02EFAF3
:101BB00000BF80BD80B500AF024800F035FE00BF19
:101BC00080BD00BFC007002080B500AF024804F010
:101BD000CFFB00BF80BD00BFC804002080B500AFB0
:101BE000024804F0A1FF00BF80BD00BFEC0600204A
:101BF00080B500AF024800F017FE00BF80BD00BFF7
:101C00009005002080B500AF024800F00DFE00BF37
:101C100080BD00BFF005002080B500AF024801F094
:101C200078FC00BF80BD00BF041D002080B400AF61
:101C300001231846BD465DF8047B704780B582B02D
:101C400000AF786039600BF063FD034616221A601E
:101C50004FF0FF3318460837BD4680BD80B582B0CF
:101C600000AF78604FF0FF317868FFF7E7FF00BF03
:101C7000FDE780B586B000AFF860B9607A600023F8
:101C80007B610AE0AFF300800146BB685A1CBA6072
:101C9000CAB21A707B6901337B617A697B689A42A8
:101CA000F0DB7B6818461837BD4680BD80B586B02E
:101CB00000AFF860B9607A6000237B6109E0BB681F
:101CC0005A1CBA601B781846AFF300807B69013359
:101CD0007B617A697B689A42F1DB7B68184618372A
:101CE000BD4680BD80B483B000AF78604FF0FF3355
:101CF00018460C37BD465DF8047B704780B483B04E
:101D000000AF786039603B684FF400525A6000239E
:101D100018460C37BD465DF8047B704780B483B02D
:101D200000AF7860012318460C37BD465DF8047B90
:101D3000704780B485B000AFF860B9607A60002366
:101D400018461437BD465DF8047B704780B586B0F1
:101D500000AF7860144A154BD31A7B617B693B61F5
:101D6000134B1B68002B02D1114B124A1A60104B07
:101D70001A687B6813443A699A4207D20BF0C8FC90
:101D800003460C221A604FF0FF3309E0084B1B6832
:101D9000FB60074B1A687B681344054A1360FB68B5
:101DA00018461837BD4680BD00000420000800001A
:101DB000500600203023002080B400AF064BD3F83B
:101DC0008830054A43F47003C2F8883000BFBD462E
:101DD0005DF8047B704700BF00ED00E080B58EB079
:101DE00000AF07F1280300221A605A609A60DA6097
:101DF00007F11C0300221A605A609A603B460022D9
:101E00001A605A609A60DA601A615A619A612D4BC1
:101E10004FF080421A602B4B6B225A60294B0022F4
:101E20009A60284B40F6C312DA60264B00221A61F2
:101E3000244B80229A61234804F0BEFD0346002B08
:101E400001D0FFF7D7FC4FF48053BB6207F12803A2
:101E500019461C4805F084F80346002B01D0FFF713
:101E6000C9FC184804F0FFFD0346002B01D0FFF722
:101E7000C1FC0023FB6100237B6207F11C031946B0
:101E8000104805F007FD0346002B01D0FFF7B2FC18
:101E900060233B6000237B600023BB6000233B6129
:101EA0003B4600221946074804F046FF0346002B34
:101EB00001D0FFF79FFC034800F00CF900BF383752
:101EC000BD4680BD5406002080B58EB000AF07F13E
:101ED000280300221A605A609A60DA6007F11C0336
:101EE00000221A605A609A603B4600221A605A60CB
:101EF0009A60DA601A615A619A61334B334A1A6008
:101F0000314B6B225A60304B00229A602E4B44F6C4
:101F10001F62DA602C4B00221A612B4B80229A61DF
:101F2000294804F049FD0346002B01D0FFF762FC6D
:101F30004FF48053BB6207F128031946224805F08D
:101F40000FF80346002B01D0FFF754FC1E4804F0A5
:101F50008AFD0346002B01D0FFF74CFC0023FB61F8
:101F600000237B6207F11C031946174805F092FC19
:101F70000346002B01D0FFF73DFC60233B6040F29D
:101F8000DC537B600023BB6000233B613B460022A7
:101F900019460D4804F0D0FE0346002B01D0FFF790
:101FA00029FC3B4604221946074804F0C5FE0346B7
:101FB000002B01D0FFF71EFC034800F08BF800BF98
:101FC0003837BD4680BD00BFA00600200008004095
:101FD00080B584B000AF3B1D00221A605A609A6041
:101FE000144B154A1A60134B6B225A60114B002296
:101FF0009A60104B40F2E732DA600E4B80229A6111
:102000000C4804F0D9FC0346002B01D0FFF7F2FB8B
:1020100000237B600023FB603B1D1946054805F04B
:1020200039FC0346002B01D0FFF7E4FB00BF10375B
:10203000BD4680BDEC0600200010004080B586B093
:1020400000AF78607B681B68B3F1804F0CD11E4BEA
:102050001B6C1D4A43F0010313641B4B1B6C03F004
:1020600001037B617B692AE07B681B68174A934206
:102070000CD1154B1B6C144A43F004031364124B30
:102080001B6C03F004033B613B6918E07B681B6831
:102090000F4A934213D10C4B1B6C0B4A43F01003B5
:1020A0001364094B1B6C03F01003FB60FB680022F8
:1020B0000221362000F0B1FA362000F0CAFA00BF43
:1020C0001837BD4680BD00BF003802400008004000
:1020D0000010004080B58AB000AF786007F11403AB
:1020E00000221A605A609A60DA601A617B681B6885
:1020F000B3F1804F1DD1214B1B6B204A43F00103EC
:1021000013631E4B1B6B03F001033B613B694FF4F0
:1021100000437B610223BB610023FB6103233B621D
:1021200001237B6207F114031946154800F0B8FD3E
:1021300020E07B681B68134A93421BD10F4B1B6B3B
:102140000E4A43F0020313630C4B1B6B03F00203B4
:10215000FB60FB68C0237B610223BB610023FB6142
:1021600002233B6202237B6207F1140319460648EF
:1021700000F096FD00BF2837BD4680BD0038024004
:1021800000000240000800400004024080B500AF9B
:10219000134B144A1A60124B134A5A60104B002218
:1021A0009A600F4B0022DA600D4B00221A610C4B33
:1021B00004225A610A4B00229A61094B0022DA611B
:1021C000074B00221A62064B00225A62044805F0AF
:1021D0000DFC0346002B01D0FFF70CFB00BF80BDB8
:1021E0003807002000440040A068060080B5AAB06F
:1021F00000AF786007F1940300221A605A609A6079
:10220000DA601A6107F114038022002118460BF0EE
:102210001DFA7B681B68394A93426AD180237B612F
:1022200000237B6507F11403184602F0DFFF034625
:10223000002B01D0FFF7DEFA314B1B6C304A43F420
:10224000003313642E4B1B6C03F400333B613B697A
:102250002B4B1B6B2A4A43F001031363284B1B6B68
:1022600003F00103FB60FB680C23C7F894300223E2
:10227000C7F898300023C7F89C300323C7F8A03074
:102280000723C7F8A43007F1940319461D4800F04E
:1022900007FD1D4B1D4A1A601B4B4FF000625A6030
:1022A000194B00229A60184B0022DA60164B4FF44B
:1022B00080621A61144B00225A61134B00229A610A
:1022C000114B4FF48072DA610F4B4FF480321A6277
:1022D0000D4B00225A620C4800F0D6F90346002B41
:1022E00001D0FFF787FA7B68074A5A67064A7B687E
:1022F000936300BFA837BD4680BD00BF00440040C7
:102300000038024000000240C00700208860024000
:10231000DFF834D0FFF750FD0C480D490D4A00237B
:1023200002E0D458C4500433C4188C42F9D30A4A8A
:102330000A4C002301E013600432A242FBD30BF0ED
:10234000EDF9FEF7DDFF70470000042000000020DB
:10235000D4020020AC120108D40200203023002057
:10236000FEE780B500AF032000F04CF90F2000F02D
:1023700005F8FFF7C5FB0023184680BD80B582B085
:1023800000AF7860124B1A68124B1B7819464FF455
:102390007A73B3FBF1F3B2FBF3F3184600F067F97D
:1023A0000346002B01D001230EE07B680F2B0AD8D7
:1023B000002279684FF0FF3000F02FF9064A7B6861
:1023C0001360002300E0012318460837BD4680BD96
:1023D00000000020080000200400002080B400AFAE
:1023E000064B1B781A46064B1B681344044A1360BD
:1023F00000BFBD465DF8047B704700BF08000020A9
:102400002008002080B400AF034B1B681846BD466F
:102410005DF8047B704700BF2008002080B584B0C1
:1024200000AF7860FFF7EEFFB8607B68FB60FB6889
:10243000B3F1FF3F05D00A4B1B781A46FB681344E3
:10244000FB6000BFFFF7DEFF0246BB68D31AFA68E5
:102450009A42F7D800BF00BF1037BD4680BD00BF0D
:102460000800002080B485B000AF78607B6803F07E
:102470000703FB600B4BDB68BB60BA684FF6FF03DA
:102480001340BB60FB681A02BB681A43064B134338
:10249000BB60044ABB68D36000BF1437BD465DF81B
:1024A000047B704700ED00E00000FA0580B400AF47
:1024B000044BDB681B0A03F007031846BD465DF8B2
:1024C000047B704700ED00E080B483B000AF0346AA
:1024D000FB7197F90730002B0BDBFB7903F01F0230
:1024E000074997F907305B09012000FA02F241F829
:1024F000232000BF0C37BD465DF8047B704700BF4A
:1025000000E100E080B483B000AF03463960FB71A6
:1025100097F90730002B0ADB3B68DAB20C4997F9D0
:1025200007301201D2B20B4483F800230AE03B6863
:10253000DAB20849FB7903F00F03043B1201D2B26F
:102540000B441A7600BF0C37BD465DF8047B70471C
:1025500000E100E000ED00E080B489B000AFF86079
:10256000B9607A60FB6803F00703FB61FB69C3F1A4
:102570000703042B28BF0423BB61FB690433062B2C
:1025800002D9FB69033B00E000237B614FF0FF327F
:10259000BB6902FA03F3DA43BB681A407B699A40CD
:1025A0004FF0FF317B6901FA03F3D9437B680B409D
:1025B000134318462437BD465DF8047B704700007E
:1025C00080B582B000AF78607B68013BB3F1807F5B
:1025D00001D301230FE00A4A7B68013B53600F21BE
:1025E0004FF0FF30FFF78EFF054B00229A60044B3F
:1025F00007221A60002318460837BD4680BD00BF79
:1026000010E000E080B582B000AF78607868FFF736
:1026100029FF00BF0837BD4680BD80B586B000AF3A
:102620000346B9607A60FB7300237B61FFF73EFFCE
:1026300078617A68B9687869FFF78EFF024697F982
:102640000F3011461846FFF75DFF00BF1837BD4633
:1026500080BD80B582B000AF0346FB7197F90730AB
:102660001846FFF731FF00BF0837BD4680BD80B573
:1026700082B000AF78607868FFF7A2FF0346184683
:102680000837BD4680BD000080B586B000AF7860D9
:1026900000237B61FFF7B6FE38617B68002B01D118
:1026A000012399E07B68022283F835207B680022B1
:1026B00083F834207B681B681A687B681B6822F0EB
:1026C00001021A600FE0FFF79DFE02463B69D31A34
:1026D000052B08D97B6820225A657B68032283F882
:1026E0003520032378E07B681B681B6803F0010337
:1026F000002BE8D17B681B681B687B617A69384BCB
:1027000013407B617B685A687B689B681A437B68CF
:10271000DB681A437B681B691A437B685B691A4351
:102720007B689B691A437B68DB691A437B681B6A79
:1027300013437A6913437B617B685B6A042B07D17F
:102740007B68DA6A7B681B6B13437A6913437B618E
:102750007B681B687A691A607B681B685B697B61B0
:102760007B6923F007037B617B685B6A7A691343AB
:102770007B617B685B6A042B17D17B689B6A7A69F3
:1027800013437B617B68DB6A002B0ED0786800F016
:102790000BFA0346002B08D07B6840225A657B6801
:1027A000002283F83520012316E07B681B687A69D4
:1027B0005A61786800F0C2F90346FB607B68DB6D04
:1027C0003F229A40FB689A607B6800225A657B68CA
:1027D000012283F83520002318461837BD4680BDF6
:1027E0003F8010E080B483B000AF78607B6893F8DE
:1027F0003530DBB2022B04D07B6880225A6501237E
:102800000CE07B68052283F835207B681B681A681A
:102810007B681B6822F001021A60002318460C37FF
:10282000BD465DF8047B704780B586B000AF786028
:102830000023BB608E4B1B688E4AA2FB03239B0ABE
:102840007B617B689B6D3B613B691B68FB607B68C0
:10285000DB6D08229A40FB681340002B1AD07B687E
:102860001B681B6803F00403002B13D07B681B68F4
:102870001A687B681B6822F004021A607B68DB6DB3
:1028800008229A403B699A607B685B6D43F00102C5
:102890007B685A657B68DB6D01229A40FB681340B8
:1028A000002B12D07B681B685B6903F08003002B50
:1028B0000BD07B68DB6D01229A403B699A607B6894
:1028C0005B6D43F002027B685A657B68DB6D042216
:1028D0009A40FB681340002B12D07B681B681B6872
:1028E00003F00203002B0BD07B68DB6D04229A40BF
:1028F0003B699A607B685B6D43F004027B685A65B4
:102900007B68DB6D10229A40FB681340002B43D09C
:102910007B681B681B6803F00803002B3CD07B68B6
:10292000DB6D10229A403B699A607B681B681B68CC
:1029300003F48023002B18D07B681B681B6803F40A
:102940000023002B08D17B681B6C002B24D07B68F4
:102950001B6C786898471FE07B689B6C002B1BD032
:102960007B689B6C7868984716E07B681B681B68DF
:1029700003F48073002B07D17B681B681A687B689F
:102980001B6822F008021A607B681B6C002B03D0C6
:102990007B681B6C786898477B68DB6D20229A40C7
:1029A000FB681340002B00F08F807B681B681B685E
:1029B00003F01003002B00F087807B68DB6D202282
:1029C0009A403B699A607B6893F83530DBB2052BFF
:1029D00036D17B681B681A687B681B6822F0160278
:1029E0001A607B681B685A697B681B6822F080024A
:1029F0005A617B681B6C002B03D17B689B6C002B9E
:102A000007D07B681B681A687B681B6822F0080285
:102A10001A607B68DB6D3F229A403B699A607B6855
:102A2000012283F835207B68002283F834207B68FC
:102A30001B6D002B7ED07B681B6D7868984779E012
:102A40007B681B681B6803F48023002B1DD07B6808
:102A50001B681B6803F40023002B0DD17B685B6CA3
:102A6000002B31D07B685B6C786898472CE000BF06
:102A700000000020B5814E1B7B68DB6B002B23D050
:102A80007B68DB6B786898471EE07B681B681B6877
:102A900003F48073002B0FD17B681B681A687B6876
:102AA0001B6822F010021A607B68012283F835202F
:102AB0007B68002283F834207B68DB6B002B03D01B
:102AC0007B68DB6B786898477B685B6D002B32D046
:102AD0007B685B6D03F00103002B22D07B6805222D
:102AE00083F835207B681B681A687B681B6822F0B6
:102AF00001021A60BB680133BB607A699A4207D34E
:102B00007B681B681B6803F00103002BF2D100E017
:102B100000BF7B68012283F835207B68002283F8A0
:102B200034207B68DB6C002B05D07B68DB6C78681D
:102B3000984700E000BF1837BD4680BD80B485B01F
:102B400000AF78607B681B68DBB2103B134AA2FBC6
:102B500003231B09FB60124AFB6813441B781A46C7
:102B60007B68DA65FB68032B08D97B681B681A460B
:102B70000C4B13401A1D7B689A6506E07B681B6846
:102B80001A46084B13407A6893657B689B6D18461C
:102B90001437BD465DF8047B704700BFABAAAAAAF4
:102BA0006C0E010800FCFFFF80B485B000AF7860B8
:102BB0000023FB737B689B6ABB607B689B69002B6F
:102BC0001FD1BB68032B56D801A252F823F000BFD7
:102BD000E12B0008F32B0008E12B0008772C0008FC
:102BE0007B68DB6A03F08073002B46D00123FB7304
:102BF00043E07B68DB6AB3F1C07F40D10123FB7304
:102C00003DE07B689B69B3F5005F21D1BB68032B76
:102C100037D801A252F823F0292C00082F2C0008E5
:102C2000292C0008412C00080123FB7330E07B684D
:102C3000DB6A03F08073002B25D00123FB7322E0B5
:102C40007B68DB6AB3F1C07F1FD10123FB731CE0FB
:102C5000BB68022B03D9BB68032B03D018E0012308
:102C6000FB7315E07B68DB6A03F08073002B0ED0EA
:102C70000123FB730BE000BF0AE000BF08E000BFC8
:102C800006E000BF04E000BF02E000BF00E000BFBC
:102C9000FB7B18461437BD465DF8047B704700BFC8
:102CA00080B489B000AF786039600023FB610023F5
:102CB0007B6100233B610023BB610023FB6169E171
:102CC0000122FB6902FA03F37B613B681B687A69A6
:102CD00013403B613A697B699A4240F058813B68F6
:102CE0005B6803F00303012B05D03B685B6803F0CE
:102CF0000303022B30D17B689B68BB61FB695B00DF
:102D0000032202FA03F3DB43BA691340BB613B6859
:102D1000DA68FB695B0002FA03F3BA691343BB612B
:102D20007B68BA699A607B685B68BB610122FB695A
:102D300002FA03F3DB43BA691340BB613B685B688B
:102D40001B0903F00102FB6902FA03F3BA6913439A
:102D5000BB617B68BA695A603B685B6803F0030338
:102D6000032B17D07B68DB68BB61FB695B00032228
:102D700002FA03F3DB43BA691340BB613B689A680C
:102D8000FB695B0002FA03F3BA691343BB617B681A
:102D9000BA69DA603B685B6803F00303022B23D156
:102DA000FB69DA087B68083253F82230BB61FB69A3
:102DB00003F007039B000F2202FA03F3DB43BA6917
:102DC0001340BB613B681A69FB6903F007039B0072
:102DD00002FA03F3BA691343BB61FB69DA087B6843
:102DE0000832B96943F822107B681B68BB61FB6934
:102DF0005B00032202FA03F3DB43BA691340BB61B1
:102E00003B685B6803F00302FB695B0002FA03F3B3
:102E1000BA691343BB617B68BA691A603B685B6837
:102E200003F44033002B00F0B280604B5B6C5F4AD0
:102E300043F4804353645D4B5B6C03F48043FB605D
:102E4000FB685B4AFB699B08023352F82330BB6185
:102E5000FB6903F003039B000F2202FA03F3DB4339
:102E6000BA691340BB617B68524A93422BD07B689E
:102E7000514A934225D07B68504A93421FD07B68C9
:102E80004F4A934219D07B684E4A934213D07B68D5
:102E90004D4A93420DD07B684C4A934207D07B68E1
:102EA0004B4A934201D107230EE008230CE006238E
:102EB0000AE0052308E0042306E0032304E00223DC
:102EC00002E0012300E00023FA6902F0030292000D
:102ED0009340BA691343BB613549FB699B080233D0
:102EE000BA6941F823203B4B9B68BB613B69DB43DC
:102EF000BA691340BB613B685B6803F48013002B25
:102F000003D0BA693B691343BB61324ABB69936022
:102F1000304BDB68BB613B69DB43BA691340BB6183
:102F20003B685B6803F40013002B03D0BA693B696C
:102F30001343BB61274ABB69D360264B5B68BB6107
:102F40003B69DB43BA691340BB613B685B6803F4D0
:102F50000033002B03D0BA693B691343BB611D4AA0
:102F6000BB6953601B4B1B68BB613B69DB43BA69A0
:102F70001340BB613B685B6803F48033002B03D0D4
:102F8000BA693B691343BB61124ABB691360FB69B1
:102F90000133FB61FB690F2B7FF692AE00BF00BFD0
:102FA0002437BD465DF8047B704700BF00380240FF
:102FB00000380140000002400004024000080240C6
:102FC000000C0240001002400014024000180240B1
:102FD000001C0240003C014080B483B000AF786028
:102FE0000B467B8013467B707B78002B03D07A885E
:102FF0007B689A6103E07B881A047B689A6100BF52
:103000000C37BD465DF8047B7047000080B582B088
:1030100000AF0346FB80084B5A69FB881340002B26
:1030200006D0054AFB885361FB881846FEF7CEFBA5
:1030300000BF0837BD4680BD003C014080B582B06E
:1030400000AF78607B68002B01D101238BE07B68A7
:1030500093F84130DBB2002B06D17B68002283F865
:1030600040207868FEF7ECF87B68242283F8412042
:103070007B681B681A687B681B6822F001021A6073
:103080007B685A687B681B6822F070621A617B68F3
:103090001B689A687B681B6822F400429A607B6810
:1030A000DB68012B07D17B689A687B681B6842F458
:1030B00000429A6006E07B689A687B681B6842F46D
:1030C00004429A607B68DB68022B08D17B681B682E
:1030D0005A687B681B6842F400625A6007E07B68AC
:1030E0001B685A687B681B6822F400625A607B6820
:1030F0001B6859687B681A681D4B0B4353607B68DB
:103100001B68DA687B681B6822F40042DA607B681F
:103110001A697B685B6942EA03017B689B691A0252
:103120007B681B680A43DA607B68D9697B681A6A26
:103130007B681B680A431A607B681B681A687B6897
:103140001B6842F001021A607B6800225A647B68A7
:10315000202283F841207B6800221A637B680022CA
:1031600083F84220002318460837BD4680BD00BFC3
:103170000080000280B483B000AF786039607B6863
:1031800093F84130DBB2202B38D17B6893F8403084
:10319000012B01D1022332E07B68012283F8402019
:1031A0007B68242283F841207B681B681A687B684F
:1031B0001B6822F001021A607B681B681A687B6832
:1031C0001B6822F480521A607B681B6819687B6850
:1031D0001B683A680A431A607B681B681A687B6838
:1031E0001B6842F001021A607B68202283F84120AC
:1031F0007B68002283F84020002300E00223184669
:103200000C37BD465DF8047B704780B485B000AFD5
:10321000786039607B6893F84130DBB2202B39D17C
:103220007B6893F84030012B01D1022333E07B68A7
:10323000012283F840207B68242283F841207B68A8
:103240001B681A687B681B6822F001021A607B68A1
:103250001B681B68FB60FB6823F47063FB603B68C2
:103260001B02FA681343FB607B681B68FA681A60EC
:103270007B681B681A687B681B6842F001021A6051
:103280007B68202283F841207B68002283F840205D
:10329000002300E0022318461437BD465DF8047B86
:1032A000704780B586B002AF78607B68002B01D193
:1032B000012308E17B681B68BB607B6893F8953449
:1032C000DBB2002B06D17B68002283F89424786857
:1032D00008F0C4FD7B68032283F89524BB68B3F132
:1032E000A04F02D17B6800229A717B681B68184648
:1032F00005F037F97B6818687B681A7C8DF8002028
:1033000004330ECB04F0EEFF0346002B05D07B68A0
:10331000022283F895240123D5E07B681B680021F5
:10332000184605F02FF90346002B05D07B680222D2
:1033300083F895240123C6E00023FB734AE0FA7B5F
:1033400079681346DB0013449B000B4415330122BC
:103350001A70FA7B79681346DB0013449B000B4418
:103360001433FA7B1A70FA7BFB7B98B279681346A8
:10337000DB0013449B000B442E3302461A80FA7B79
:1033800079681346DB0013449B000B44183300227A
:103390001A70FA7B79681346DB0013449B000B44D8
:1033A0001C3300221A60FA7B79681346DB00134451
:1033B0009B000B44203300221A60FA7B7968134685
:1033C000DB0013449B000B44243300221A60FB7B78
:1033D0000133FB737B681B79FA7B9A42AFD30023DE
:1033E000FB7344E0FA7B79681346DB0013449B00CF
:1033F0000B4403F2552300221A70FA7B79681346B6
:10340000DB0013449B000B4403F51573FA7B1A7021
:10341000FA7B79681346DB0013449B000B4403F5E9
:10342000167300221A70FA7B79681346DB00134486
:103430009B000B4403F5177300221A60FA7B79682E
:103440001346DB0013449B000B4403F51873002262
:103450001A60FA7B79681346DB0013449B000B4427
:1034600003F5197300221A60FB7B0133FB737B6841
:103470001B79FA7B9A42B5D37B6818687B681A7C03
:103480008DF8002004330ECB05F0C8F80346002B5E
:1034900005D07B68022283F89524012313E07B6822
:1034A00000225A747B68012283F895247B681B7B79
:1034B000012B02D1786801F05BF97B681B68184624
:1034C00006F01DF9002318461037BD4680BD80B5B3
:1034D00082B000AF78607B6893F89434012B01D1FF
:1034E000022312E07B68012283F894247B681B6826
:1034F000184605F025F87B681B68184606F0DEF8CC
:103500007B68002283F89424002318460837BD46C0
:1035100080BD90B58DB000AF78607B681B683B6262
:103520003B6AFB617B681B68184606F09CF9034602
:10353000002B40F0B9847B681B68184606F000F940
:103540000346002B00F0AF84FB6903F500639B6822
:103550001B0AC3F30D027B68C3F8D4247B681B6885
:10356000184606F0EDF8034603F00203022B07D1DC
:103570007B681B685A697B681B6802F002025A610B
:103580007B681B68184606F0DBF8034603F010035F
:10359000102B61D17B681B689A697B681B6822F0DD
:1035A00010029A613B6A1B6ABB61BB6903F00F02A0
:1035B0001346DB0013449B0003F514737A6813442D
:1035C00004337B61BB6903F4F013B3F5802F24D17E
:1035D000BA6947F6F0731340002B35D07B69D96880
:1035E000BB691B099BB2C3F30A039BB21A46386A34
:1035F00005F012FF7B69DA68BB691B09C3F30A0394
:103600001A447B69DA607B695A69BB691B09C3F399
:103610000A031A447B695A6116E0BB6903F4F0138C
:10362000B3F5402F10D17B6803F29C430822194662
:10363000386A05F0F1FE7B695A69BB691B09C3F35F
:103640000A031A447B695A617B681B689A697B6824
:103650001B6842F010029A617B681B68184606F0EE
:103660006FF8034603F40023B3F5002F40F0A78062
:1036700000237B627B681B68184606F074F8B8620A
:1036800099E0BB6A03F00103002B00F08E807B6899
:103690001B687A6AD2B21146184606F098F838616B
:1036A0003B6903F00103002B0CD07B6A5A01FB69D4
:1036B000134403F530631A4601239360796A7868EE
:1036C00000F0D0FE3B6903F00803002B0CD07B6AAE
:1036D0005A01FB69134403F530631A4608239360CB
:1036E000796A786800F0A6FF3B6903F01003002BAD
:1036F00008D07B6A5A01FB69134403F530631A460C
:10370000102393603B6903F00203002B30D03B6A27
:103710005B6903F08003802B09D1FB6903F500632B
:103720005B68FA6902F5006243F4806353607A6A69
:103730001346DB0013449B0003F514737A681344AB
:1037400004337B617B69DB78012B08D17B69002224
:10375000DA707B6ADBB21946786808F0A3FC7B6AF2
:103760005A01FB69134403F530631A460223936040
:103770003B6903F02003002B08D07B6A5A01FB69E8
:10378000134403F530631A46202393603B6903F426
:103790000053002B09D07B6A5A01FB69134403F5DF
:1037A00030631A464FF4005393607B6A01337B62A7
:1037B000BB6A5B08BB62BB6A002B7FF462AF7B68AD
:1037C0001B68184605F0BCFF034603F48023B3F5DD
:1037D000802F40F0DB807B681B68184605F0DDFF1A
:1037E000B86200237B62CDE0BB6A03F00103002BCB
:1037F00000F0C2807B681B687A6AD2B21146184614
:1038000006F003F838613B6903F00103002B57D041
:103810007B6A03F00F03012202FA03F3FB60FB69EA
:1038200003F500635A6BFB68DB43F96901F500613E
:1038300013404B637B6A5A01FB69134403F5106321
:103840001A46012393607B689B79012B32D17968FA
:103850007A6A1346DB0013449B000B44203319683B
:1038600078687A6A1346DB0013449B0003441C33D8
:103870001B68194478687A6A1346DB0013449B007E
:103880000344203319607B6A002B13D179687A6A6C
:103890001346DB0013449B000B4424331B68002BAE
:1038A00008D17B6818687B6803F29C431A460121A3
:1038B00006F00CF87B6ADBB21946786808F06DFBFD
:1038C0003B6903F00803002B08D07B6A5A01FB69AF
:1038D000134403F510631A46082393603B6903F011
:1038E0001003002B08D07B6A5A01FB69134403F5CF
:1038F00010631A46102393603B6903F04003002BCA
:1039000008D07B6A5A01FB69134403F510631A4619
:10391000402393603B6903F00203002B23D0796AB4
:10392000386A04F0EBFF7A6A1346DB0013449B000D
:1039300010337A68134404337B617B69DB78012B95
:1039400008D17B690022DA707B6ADBB2194678689D
:1039500008F0BAFB7B6A5A01FB69134403F5106354
:103960001A46022393603B6903F08003002B03D0C7
:10397000796A786800F0EAFC7B6A01337B62BB6A93
:103980005B08BB62BB6A002B7FF42EAF7B681B68B1
:10399000184605F0D5FE034603F00043B3F1004F8F
:1039A00022D1FB6903F500635B68FA6902F50062E6
:1039B00023F0010353607B6893F8CC34012B08D1CA
:1039C0007B68002283F8CC240021786808F038FD59
:1039D00002E0786808F058FB7B681B685A697B68CE
:1039E0001B6802F000425A617B681B68184605F0AC
:1039F000A7FE034603F40063B3F5006F12D1FB6921
:103A000003F500639B6803F00103012B02D1786882
:103A100008F014FB7B681B685A697B681B6802F41A
:103A200000625A617B681B68184605F089FE0346F0
:103A300003F00063B3F1006F21D17B681B685A6902
:103A40007B681B6802F000625A617B6893F8CC3493
:103A5000002B11D17B68012283F8CC247B681B6882
:103A60005B6D9B0803F00F027B68C3F8D024012133
:103A7000786808F0E5FC02E0786808F0DFFA7B6817
:103A80001B68184605F05CFE034603F48053B3F54B
:103A9000805F40F0B780FB6903F500635B68FA69FB
:103AA00002F5006223F0010353607B681B6810215C
:103AB000184604F023FF0023FB6246E0FB6A5A012C
:103AC000FB69134403F510631A464FF67F33936086
:103AD000FB6A5A01FB69134403F510631B68FA6A19
:103AE0005101FA690A4402F5106223F400131360CD
:103AF000FB6A5A01FB69134403F530631A464FF61B
:103B00007F339360FB6A5A01FB69134403F530630A
:103B10001B68FA6A5101FA690A4402F5306223F41B
:103B200000131360FB6A5A01FB69134403F5306309
:103B30001B68FA6A5101FA690A4402F5306243F0DF
:103B400000631360FB6A0133FB627B681B791A46D2
:103B5000FB6A9342B2D3FB6903F50063DB69FA6940
:103B600002F5006243F00113D3617B68DB7B002B1D
:103B700016D0FB6903F50063D3F88430FA6902F5C7
:103B8000006243F00B03C2F88430FB6903F5006365
:103B90005B6CFA6902F5006243F00B03536415E0B5
:103BA000FB6903F500635A69FB6903F50063194675
:103BB00042F22B0313434B61FB6903F500631B695E
:103BC000FA6902F5006243F00B031361FB6903F528
:103BD00000631B68FA6902F5006223F4FE63136058
:103BE0007B6818687B6899797B6803F29C431A4666
:103BF00005F06CFE7B681B685A697B681B6802F4E1
:103C000080525A617B681B68184605F099FD03468F
:103C100003F40053B3F5005F23D17B681B6818469B
:103C200005F030FE7B681B68184604F0E0FE034692
:103C30001A467B68DA717B681C6801F0A3FA0146BA
:103C40007B68DB791A46204604F0D8FB786808F0D8
:103C5000CCF97B681B685A697B681B6802F40052C8
:103C60005A617B681B68184605F06AFD034603F03D
:103C70000803082B0AD1786808F0A9F97B681B684B
:103C80005A697B681B6802F008025A617B681B68EE
:103C9000184605F055FD034603F08003802B23D121
:103CA0003B6A9B6923F080023B6A9A6101237B6235
:103CB00014E079687A6A1346DB0013449B000B44D6
:103CC00003F257231B78012B05D17B6ADBB219461F
:103CD000786800F00AFB7B6A01337B627B681B79A2
:103CE0001A467B6A9342E4D37B681B68184605F04A
:103CF00027FD034603F48013B3F5801F3CD1012355
:103D00007B622BE07B6A5A01FB69134403F5106365
:103D10001B68BB6179687A6A1346DB0013449B0019
:103D20000B4418331B78012B15D1BB69002B12DA19
:103D300079687A6A1346DB0013449B000B441733FF
:103D400001221A707B6ADBB263F07F03DBB2194693
:103D5000786800F0CAFA7B6A01337B627B681B7962
:103D60001A467B6A9342CDD37B681B685A697B688D
:103D70001B6802F480125A617B681B68184605F0C4
:103D8000DFFC034603F40013B3F5001F56D10123F3
:103D90007B6245E07B6A5A01FB69134403F530639B
:103DA0001B68BB6179687A6A1346DB0013449B0089
:103DB0000B4403F516731B78012B2ED1BB69002B26
:103DC0002BDABB691A0C7B68D3F8D434534003F068
:103DD0000103002B21D179687A6A1346DB00134472
:103DE0009B000B4403F2572301221A703B6A9B6924
:103DF00043F080023B6A9A613B6A5B6903F080038F
:103E0000002B0AD1FB6903F500635B68FA6902F5D0
:103E1000006243F40073536008E07B6A01337B6205
:103E20007B681B791A467B6A9342B3D37B681B6815
:103E30005A697B681B6802F400125A617B681B6830
:103E4000184605F07DFC034603F08043B3F1804F34
:103E50000AD1786808F04AF97B681B685A697B6860
:103E60001B6802F080425A617B681B68184605F0A7
:103E700067FC034603F00403042B15D17B681B6821
:103E80005B68BB61BB6903F00403002B02D0786858
:103E900008F03AF97B681B6859687B681B68BA6947
:103EA0000A435A6000E000BF3437BD4690BD80B57C
:103EB00082B000AF78600B46FB707B6893F8943457
:103EC000012B01D1022312E07B68012283F89424A4
:103ED0007B68FA785A747B681B68FA781146184632
:103EE00005F0C6FB7B68002283F894240023184663
:103EF0000837BD4680BD80B584B000AF7860084605
:103F000011461A460346FB700B463B801346BB70B6
:103F10000023FB7297F90330002B0FDAFB7803F0D4
:103F20000F021346DB0013449B0010337A681344DE
:103F30000433FB60FB6801225A700FE0FB7803F04A
:103F40000F021346DB0013449B0003F514737A68D9
:103F500013440433FB60FB6800225A70FB7803F0C3
:103F60000F03DAB2FB681A703B88C3F30A02FB68DE
:103F70009A60FB68BA781A71FB685B78002B04D0F2
:103F8000FB681B781A46FB685A83BB78022B02D168
:103F9000FB6800225A717B6893F89434012B01D19D
:103FA00002230EE07B68012283F894247B681B685F
:103FB000F968184604F040FD7B68002283F89424D9
:103FC000FB7A18461037BD4680BD80B584B000AF7F
:103FD00078600B46FB7097F90330002B0FDAFB7803
:103FE00003F00F021346DB0013449B0010337A6882
:103FF00013440433FB60FB6801225A700FE0FB7826
:1040000003F00F021346DB0013449B0003F5147307
:104010007A6813440433FB60FB6800225A70FB7813
:1040200003F00F03DAB2FB681A707B6893F89434DC
:10403000012B01D102230EE07B68012283F8942436
:104040007B681B68F968184604F07EFD7B680022D7
:1040500083F89424002318461037BD4680BD80B5F0
:1040600086B000AFF8607A603B600B46FB72FB7A6B
:1040700003F00F021346DB0013449B0003F5147397
:10408000FA68134404337B617B697A68DA607B6980
:104090003A681A617B6900225A617B6900225A7072
:1040A000FB7A03F00F03DAB27B691A70FB689B7925
:1040B000012B02D17A687B69DA61FB681868FB68BA
:1040C0009B791A46796904F01BFE002318461837BD
:1040D000BD4680BD80B483B000AF78600B46FB70F6
:1040E000FB7803F00F0279681346DB0013449B0052
:1040F0000B4403F51A731B6818460C37BD465DF870
:10410000047B704780B586B000AFF8607A603B6092
:104110000B46FB72FB7A03F00F021346DB001344DD
:104120009B001033FA68134404337B617B697A681F
:10413000DA607B693A681A617B6900225A617B699F
:1041400001225A70FB7A03F00F03DAB27B691A700E
:10415000FB689B79012B02D17A687B69DA61FB6885
:104160001868FB689B791A46796904F0C9FD002339
:1041700018461837BD4680BD80B584B000AF786062
:104180000B46FB70FB7803F00F037A6812799342B9
:1041900001D901234FE097F90330002B0FDAFB78A8
:1041A00003F00F021346DB0013449B0010337A68C0
:1041B00013440433FB60FB6801225A700DE0FA7867
:1041C0001346DB0013449B0003F514737A68134411
:1041D0000433FB60FB6800225A70FB6801229A706E
:1041E000FB7803F00F03DAB2FB681A707B6893F870
:1041F0009434012B01D102231DE07B68012283F856
:1042000094247B681B68F968184605F05DF9FB7813
:1042100003F00F03002B09D17B6818687B6899793C
:104220007B6803F29C431A4605F050FB7B68002232
:1042300083F89424002318461037BD4680BD80B50E
:1042400084B000AF78600B46FB70FB7803F00F037F
:104250007A681279934201D9012342E097F9033039
:10426000002B0FDAFB7803F00F021346DB00134438
:104270009B0010337A6813440433FB60FB6801220F
:104280005A700FE0FB7803F00F021346DB00134473
:104290009B0003F514737A6813440433FB60FB68D6
:1042A00000225A70FB6800229A70FB7803F00F031B
:1042B000DAB2FB681A707B6893F89434012B01D151
:1042C00002230EE07B68012283F894247B681B683C
:1042D000F968184605F066F97B68002283F8942493
:1042E000002318461037BD4680BD80B584B000AFAE
:1042F00078600B46FB7097F90330002B0CDAFB78E3
:1043000003F00F021346DB0013449B0010337A685E
:1043100013440433FB600CE0FB7803F00F021346F8
:10432000DB0013449B0003F514737A6813440433D1
:10433000FB607B681B68F968184604F085FF03463C
:10434000FB72FB7A18461037BD4680BD80B58AB037
:1043500002AF786039607B681B687B617B693B6179
:104360003A681346DB0013449B0010337A68134409
:104370000433FB60FB685A69FB681B699A4201D9E8
:1043800001236BE0FB681A69FB685B69D31AFB6168
:10439000FB689B68FA699A4202D9FB689B68FB61DB
:1043A000FB6903339B08BB612AE0FB681A69FB6861
:1043B0005B69D31AFB61FB689B68FA699A4202D970
:1043C000FB689B68FB61FB6903339B08BB61FB686F
:1043D000D9683B68DAB2FB6998B27B689B79009335
:1043E0000346786904F0DAFFFB68DA68FB691A446F
:1043F000FB68DA60FB685A69FB691A44FB685A611A
:104400003B685A013B69134403F510639B699BB2F7
:10441000BA699A4209D8FB685A69FB681B699A42D3
:1044200003D2FB681B69002BBFD1FB681A69FB68CC
:104430005B699A4211D83B6803F00F03012202FA2C
:1044400003F3BB603B6903F500635A6BBB68DB4356
:10445000396901F5006113404B630023184620378A
:10446000BD4680BD80B588B000AF786039607B689C
:104470001B68FB61FB69BB61FB693C3304331B6850
:104480007B613B685A01BB69134403F530639B6849
:104490003B617B689B79012B7BD13B6903F008036F
:1044A000002B15D07B69614A934240F2B9803B6989
:1044B00003F40043002B00F0B3803B685A01BB6952
:1044C000134403F530631A464FF400439360A7E0AA
:1044D0003B6903F02003002B09D03B685A01BB69FC
:1044E000134403F530631A462023936098E03B6938
:1044F00003F02803002B40F093807B694B4A9342E2
:104500000FD93B6903F40043002B0AD03B685A01E2
:10451000BB69134403F530631A464FF400439360BC
:104520007EE03A681346DB0013449B0003F51473E6
:104530007A6813440433FB60FB681A6A3B685901CC
:10454000BB690B4403F530631B69C3F31203D21A32
:10455000FB685A613B68002B14D1FB681B69002B78
:1045600009D17B6818687B6803F29C431A460121D5
:1045700005F0ACF906E0FB68DA68FB685B691A4491
:10458000FB68DA603B68DBB21946786807F0EAFC42
:1045900046E07B69264A934224D13B6903F40043F9
:1045A000002B0AD03B685A01BB69134403F5306302
:1045B0001A464FF40043936032E03B6903F0200356
:1045C000002B08D03B685A01BB69134403F53063E4
:1045D0001A46202393603B68DBB21946786807F0DF
:1045E000C1FC1DE03B68002B14D179683A68134682
:1045F000DB0013449B000B4403F519731B68002B6D
:1046000008D17B6818687B6803F29C431A46002136
:1046100005F05CF93B68DBB21946786807F0A2FC4C
:10462000002318462037BD4680BD00BF0A30544FD6
:104630000A31544F80B586B000AF786039607B682E
:104640001B687B617B693B617B693C3304331B687E
:10465000FB603B685A013B69134403F530639B6878
:10466000BB60FB68154A93420ED9BB6803F4004354
:10467000002B09D03B685A013B69134403F53063B2
:104680001A464FF400439360786807F059FCFB68C2
:104690000A4A93420CD97B689B79012B08D17B682D
:1046A00018687B6803F29C431A46012105F00EF955
:1046B000002318461837BD4680BD00BF0A30544F4E
:1046C00080B485B000AF78600B46FB7013463B802A
:1046D0007B681B685B6ABB60FB78002B07D13B885B
:1046E00019047B681B68BA680A439A6228E07B68F1
:1046F0001B689B6A1B0CBA681344BB600023FB73E6
:104700000DE07B681A68FB7B40339B0013445B68B9
:104710001B0CBA681344BB60FB7B0133FB73FA7B51
:10472000FB78013B9A42ECD33B8818047B681968FC
:10473000FB78013BBA68024340339B000B445A604C
:10474000002318461437BD465DF8047B704780B4DB
:1047500083B000AF78600B467B807B681B687A88EB
:104760005A62002318460C37BD465DF8047B70473B
:1047700080B485B000AF78607B681B68FB607B68A5
:104780000122C3F8D8247B68002283F8CC24FB687C
:104790009B6943F00062FB689A61FB685A6D054BA8
:1047A0001343FA685365002318461437BD465DF875
:1047B000047B70470300001080B582B000AF002377
:1047C0007B60234B1B6C224A43F080531364204BC5
:1047D0001B6C03F080533B603B681E4B1B681D4AFB
:1047E00043F480331360FDF70DFE786009E0FDF7B8
:1047F00009FE02467B68D31AB3F57A7F01D90323F9
:1048000022E0144B5B6803F48033B3F5803FEED1B4
:10481000104B1B680F4A43F400331360FDF7F2FDA1
:10482000786009E0FDF7EEFD02467B68D31AB3F528
:104830007A7F01D9032307E0064B5B6803F400335A
:10484000B3F5003FEED1002318460837BD4680BDC2
:10485000003802400070004080B586B000AF78603C
:104860000023FB757B68002B01D1012391E27B685B
:104870001B6803F00103002B00F08780964B9B68B8
:1048800003F00C03042B0CD0934B9B6803F00C0338
:10489000082B12D1904B5B6803F48003B3F5800FB3
:1048A0000BD18D4B1B6803F40033002B6CD07B685D
:1048B0005B68002B68D101236BE27B685B68B3F512
:1048C000803F06D1844B1B68834A43F480331360D6
:1048D0002EE07B685B68002B0CD17F4B1B687E4A07
:1048E00023F4803313607C4B1B687B4A23F48023C2
:1048F00013601DE07B685B68B3F5A02F0CD1764B8D
:104900001B68754A43F480231360734B1B68724A1B
:1049100043F4803313600BE06F4B1B686E4A23F443
:10492000803313606C4B1B686B4A23F48023136045
:104930007B685B68002B13D0FDF764FD386108E0ED
:10494000FDF760FD02463B69D31A642B01D90323AE
:104950001FE2614B1B6803F40033002BF0D014E01E
:10496000FDF750FD386108E0FDF74CFD02463B695C
:10497000D31A642B01D903230BE2574B1B6803F4B2
:104980000033002BF0D100E000BF7B681B6803F010
:104990000203002B69D0504B9B6803F00C03002BE3
:1049A0000BD04D4B9B6803F00C03082B1CD14A4BDA
:1049B0005B6803F48003002B16D1474B1B6803F0A0
:1049C0000203002B05D07B68DB68012B01D001239B
:1049D000DFE1414B1B6823F0F8027B681B69DB00B9
:1049E0003D4913430B6040E07B68DB68002B23D01C
:1049F000394B1B68384A43F001031360FDF702FD91
:104A0000386108E0FDF7FEFC02463B69D31A022B31
:104A100001D90323BDE1304B1B6803F00203002BD7
:104A2000F0D02D4B1B6823F0F8027B681B69DB007C
:104A3000294913430B6018E0274B1B68264A23F0D3
:104A400001031360FDF7DEFC386108E0FDF7DAFCD6
:104A500002463B69D31A022B01D9032399E11E4B6D
:104A60001B6803F00203002BF0D17B681B6803F086
:104A70000803002B38D07B685B69002B19D0164BDC
:104A80005B6F154A43F001035367FDF7BBFC3861C8
:104A900008E0FDF7B7FC02463B69D31A022B01D9A7
:104AA000032376E10C4B5B6F03F00203002BF0D085
:104AB0001AE0094B5B6F084A23F001035367FDF7C7
:104AC000A1FC38610AE0FDF79DFC02463B69D31A60
:104AD000022B03D903235CE100380240914B5B6F4A
:104AE00003F00203002BEED17B681B6803F0040384
:104AF000002B00F0A4808B4B1B6C03F08053002B29
:104B00000DD1884B1B6C874A43F080531364854B4F
:104B10001B6C03F08053BB60BB680123FB75824BA9
:104B20001B6803F48073002B18D17F4B1B687E4AEF
:104B300043F480731360FDF765FC386108E0FDF70E
:104B400061FC02463B69D31A642B01D9032320E19F
:104B5000754B1B6803F48073002BF0D07B689B6857
:104B6000012B06D16F4B1B6F6E4A43F00103136795
:104B70002DE07B689B68002B0CD16A4B1B6F694A48
:104B800023F001031367674B1B6F664A23F004038E
:104B900013671CE07B689B68052B0CD1614B1B6F76
:104BA000604A43F0040313675E4B1B6F5D4A43F09A
:104BB000010313670BE05B4B1B6F5A4A23F00103A1
:104BC0001367584B1B6F574A23F0040313677B6826
:104BD0009B68002B15D0FDF715FC38610AE0FDF746
:104BE00011FC02463B69D31A41F28832934201D943
:104BF0000323CEE04B4B1B6F03F00203002BEED0E0
:104C000014E0FDF7FFFB38610AE0FDF7FBFB02460D
:104C10003B69D31A41F28832934201D90323B8E0A9
:104C2000404B1B6F03F00203002BEED1FB7D012BE9
:104C300005D13C4B1B6C3B4A23F0805313647B68CB
:104C40009B69002B00F0A480364B9B6803F00C039B
:104C5000082B6BD07B689B69022B49D1314B1B68B9
:104C6000304A23F080731360FDF7CCFB386108E015
:104C7000FDF7C8FB02463B69D31A022B01D9032377
:104C800087E0284B1B6803F00073002BF0D17B6892
:104C9000DA697B681B6A1A437B685B6A9B011A436B
:104CA0007B689B6A5B08013B1B041A437B68DB6AD9
:104CB0001B0613431B4A43F000535360194B1B68F8
:104CC000184A43F080731360FDF79CFB386108E0DD
:104CD000FDF798FB02463B69D31A022B01D9032347
:104CE00057E0104B1B6803F00073002BF0D04FE02F
:104CF0000C4B1B680B4A23F080731360FDF782FB9B
:104D0000386108E0FDF77EFB02463B69D31A022BAF
:104D100001D903233DE0034B1B6803F00073002B14
:104D2000F0D135E000380240007000401B4B5B685A
:104D3000FB607B689B69012B28D0FB6803F4800231
:104D40007B68DB699A4221D1FB6803F03F027B68F4
:104D50001B6A9A421AD1FA6847F6C07313407A6800
:104D6000526A9201934211D1FB6803F440327B688E
:104D70009B6A5B08013B1B049A4207D1FB6803F066
:104D800070627B68DB6A1B069A4201D0012300E057
:104D9000002318461837BD4680BD00BF00380240CA
:104DA00080B584B000AF786039600023FB607B6819
:104DB000002B01D10123D0E06A4B1B6803F00F03E5
:104DC0003A689A4210D9674B1B6823F00F02654975
:104DD0003B6813430B60634B1B6803F00F033A6897
:104DE0009A4201D00123B8E07B681B6803F00203FC
:104DF000002B20D07B681B6803F00403002B05D038
:104E0000594B9B68584A43F4E05393607B681B6896
:104E100003F00803002B05D0534B9B68524A43F420
:104E200060439360504B9B6823F0F0027B689B6863
:104E30004D4913438B607B681B6803F00103002B13
:104E400040D07B685B68012B07D1474B1B6803F49C
:104E50000033002B15D101237FE07B685B68022BB8
:104E600007D1414B1B6803F00073002B09D10123CC
:104E700073E03D4B1B6803F00203002B01D10123BB
:104E80006BE0394B9B6823F003027B685B68364913
:104E900013438B60FDF7B6FAF8600AE0FDF7B2FA4B
:104EA0000246FB68D31A41F28832934201D90323A8
:104EB00053E02D4B9B6803F00C027B685B689B0002
:104EC0009A42EBD1274B1B6803F00F033A689A42D2
:104ED00010D2244B1B6823F00F0222493B68134376
:104EE0000B60204B1B6803F00F033A689A4201D015
:104EF000012332E07B681B6803F00403002B08D019
:104F0000194B9B6823F4E0527B68DB681649134316
:104F10008B607B681B6803F00803002B09D0124BE1
:104F20009B6823F460427B681B69DB000E491343D6
:104F30008B6000F021F802460B4B9B681B0903F0C5
:104F40000F030A49CB5C22FA03F3094A1360094BA9
:104F50001B681846FDF712FA002318461037BD46A5
:104F600080BD00BF003C024000380240540E0108E2
:104F700000000020040000202DE9B04F94B000AFE5
:104F800000237B640023FB6400233B640023BB6499
:104F9000794B9B6803F00C03082B0DD0082B00F213
:104FA000E180002B02D0042B03D0DBE0734BBB6409
:104FB000DBE0734BBB64D8E06F4B5B6803F03F03EF
:104FC0007B646D4B5B6803F48003002B63D06A4BFA
:104FD0005B689B090022BB63FA63BB6BC3F30803E6
:104FE0003B6300237B63D7E90C4522462B464FF0F9
:104FF00000004FF00001590141EAD2615001024620
:105000000B462146511A3961294663EB01037B6146
:105010004FF000024FF00003D7E904AB59468B0173
:10502000514643EA916351468A015146B2EB010869
:10503000594663EB01094FF000024FF000034FEABD
:10504000C90343EA58734FEAC8029046994623467B
:1050500018EB0303BB602B4649EB0303FB604FF0E7
:1050600000024FF00003D7E9024529464B022146D2
:1050700043EAD15321464A02104619467B6C00226E
:10508000BB62FA62D7E90A23FBF726FE02460B460B
:105090001346FB6458E0384B5B689B0900221846B6
:1050A0001146C0F308033B6200237B62D7E90889FD
:1050B00042464B464FF000004FF00001590141EAD3
:1050C000D261500102460B464146B2EB010A494605
:1050D00063EB010B4FF000024FF000034FEA8B131C
:1050E00043EA9A634FEA8A12B2EB0A0463EB0B05B8
:1050F0004FF000024FF00003EB0043EA5473E2006C
:1051000014461D464346E3183B604B4645EB0303FC
:105110007B604FF000024FF00003D7E900452946BD
:105120008B02214643EA915321468A0210461946D2
:105130007B6C0022BB61FA61D7E90623FBF7CCFD4B
:1051400002460B461346FB640B4B5B681B0C03F0DB
:10515000030301335B003B64FA6C3B6CB2FBF3F37B
:10516000BB6402E0054BBB6400BFBB6C1846503704
:10517000BD46BDE8B08F00BF003802400024F400F7
:1051800000127A0080B400AF034B1B681846BD467E
:105190005DF8047B704700BF0000002080B500AFC1
:1051A000FFF7F0FF0246054B9B689B0A03F00703DD
:1051B0000349CB5C22FA03F3184680BD0038024055
:1051C000640E010880B500AFFFF7DCFF0246054B17
:1051D0009B685B0B03F007030349CB5C22FA03F3E4
:1051E000184680BD00380240640E010880B588B0C2
:1051F00000AF786000237B6100233B610023FB61EB
:105200000023BB617B681B6803F00103002B12D0F5
:10521000654B9B68644A23F400039360624B9A6871
:105220007B68DB6A604913438B607B68DB6A002B19
:1052300001D10123FB617B681B6803F40023002B71
:1052400017D0594BD3F88C3023F440127B685B6B3A
:1052500055491343C1F88C307B685B6BB3F5801FF5
:1052600001D10123FB617B685B6B002B01D1012322
:10527000BB617B681B6803F48013002B17D04A4B7B
:10528000D3F88C3023F440027B689B6B4649134370
:10529000C1F88C307B689B6BB3F5800F01D1012383
:1052A000FB617B689B6B002B01D10123BB617B6899
:1052B0001B6803F02003002B00F08B803A4B1B6C23
:1052C000394A43F080531364374B1B6C03F080530F
:1052D000FB60FB68354B1B68344A43F480731360F2
:1052E000FDF790F8786108E0FDF78CF802467B69DD
:1052F000D31A642B01D90323BCE22C4B1B6803F4A3
:105300008073002BF0D0284B1B6F03F440733B617C
:105310003B69002B35D07B689B6A03F440733A6984
:105320009A422ED0204B1B6F23F440733B611E4BDF
:105330001B6F1D4A43F4803313671B4B1B6F1A4AC4
:1053400023F480331367184A3B691367164B1B6FAE
:1053500003F00103012B14D1FDF754F878610AE042
:10536000FDF750F802467B69D31A41F28832934226
:1053700001D903237EE20C4B1B6F03F00203002BC9
:10538000EED07B689B6A03F44073B3F5407F11D184
:10539000054B9B6823F4F8127B68996A044B0B4019
:1053A000014913438B600BE000380240007000405D
:1053B000FFFCFF0FA44B9B68A34A23F4F8139360F0
:1053C000A14B1A6F7B689B6AC3F30B039E4913437F
:1053D0000B677B681B6803F01003002B10D09A4BFF
:1053E000D3F88C30984A23F08073C2F88C30964BF7
:1053F000D3F88C207B681B6B93491343C1F88C3026
:105400007B681B6803F48043002B0AD08E4BD3F8D3
:10541000903023F440327B68DB6D8B491343C1F835
:1054200090307B681B6803F40043002B0AD0864B46
:10543000D3F8903023F440227B681B6E82491343DB
:10544000C1F890307B681B6803F48033002B0AD0CE
:105450007D4BD3F8903023F440127B685B6E7A4921
:105460001343C1F890307B681B6803F04003002BA6
:105470000AD0754BD3F8903023F003027B68DB6BC6
:1054800071491343C1F890307B681B6803F08003B7
:10549000002B0AD06C4BD3F8903023F00C027B68C1
:1054A0001B6C69491343C1F890307B681B6803F497
:1054B0008073002B0AD0644BD3F8903023F0300275
:1054C0007B685B6C60491343C1F890307B681B6854
:1054D00003F40073002B0AD05B4BD3F8903023F019
:1054E000C0027B689B6C58491343C1F890307B68BD
:1054F0001B6803F48063002B0AD0534BD3F8903021
:1055000023F440727B68DB6C4F491343C1F8903041
:105510007B681B6803F40063002B0AD04A4BD3F866
:10552000903023F440627B681B6D47491343C1F8F8
:1055300090307B681B6803F48053002B0AD0424BE9
:10554000D3F8903023F440527B685B6D3E4913439F
:10555000C1F890307B681B6803F40053002B0AD01D
:10556000394BD3F8903023F440427B689B6D364929
:105570001343C1F890307B681B6803F40013002BC1
:1055800011D0314BD3F8903023F000627B685B6F11
:105590002D491343C1F890307B685B6FB3F1006F06
:1055A00001D10123BB617B681B6803F48023002BBE
:1055B0000AD0254BD3F8903023F040727B68DB6E25
:1055C00021491343C1F890307B681B6803F4000342
:1055D000002B0AD01C4BD3F8903023F080527B680C
:1055E0009B6F19491343C1F890307B681B6803F027
:1055F0008063002B0AD0144BD3F8903023F0005274
:105600007B68DB6F10491343C1F89030FB69012BB5
:1056100006D07B681B6803F00073002B00F09D80B0
:10562000094B1B68084A23F080631360FCF7EAFE0D
:1056300078610BE0FCF7E6FE02467B69D31A642B27
:1056400004D9032316E100BF003802408B4B1B68CE
:1056500003F00063002BEDD17B681B6803F00103AE
:10566000002B17D07B68DB6A002B13D1834BD3F858
:1056700084301B0E03F00F033B617B685B689A016B
:105680003B691B061A437B689B681B077B491343D6
:10569000C1F884307B681B6803F40023002B04D01E
:1056A0007B685B6BB3F5801F0AD07B681B6803F4D3
:1056B0008013002B24D07B689B6BB3F5800F1FD128
:1056C0006E4BD3F884301B0F03F007033B617B68FC
:1056D0005B689A017B68DB681B061A433B691B0702
:1056E00066491343C1F88430644BD3F88C3023F0FF
:1056F0001F027B68DB69013B60491343C1F88C30B2
:105700007B681B6803F00073002B0DD07B685B681F
:105710009A017B68DB681B061A437B689B681B0742
:1057200056491343C1F88430544B1B68534A43F025
:1057300080631360FCF766FE786108E0FCF762FEA8
:1057400002467B69D31A642B01D9032392E04B4BA9
:105750001B6803F00063002BF0D0BB69012B40F005
:105760008880464B1B68454A23F080531360FCF742
:1057700049FE786108E0FCF745FE02467B69D31AD2
:10578000642B01D9032375E03C4B1B6803F00053E5
:10579000B3F1005FEFD07B681B6803F40023002B9C
:1057A00003D07B685B6B002B09D07B681B6803F41C
:1057B0008013002B24D07B689B6B002B20D12F4BB8
:1057C000D3F888301B0C03F003033B617B681B6933
:1057D0009A013B691B041A437B685B691B062749D6
:1057E0001343C1F88830254BD3F88C3023F4F8529A
:1057F0007B681B6A013B1B0220491343C1F88C30B4
:105800007B681B6803F40013002B18D07B685B6F68
:10581000B3F1006F13D1194BD3F888301B0E03F08E
:105820000F033B617B681B699A017B689B691B04C2
:105830001A433B691B0611491343C1F888300F4BCB
:105840001B680E4A43F080531360FCF7DBFD786160
:1058500008E0FCF7D7FD02467B69D31A642B01D917
:10586000032307E0054B1B6803F00053B3F1005F0F
:10587000EFD1002318462037BD4680BD00380240D6
:1058800080B584B000AF78607B68002B01D1012324
:105890009DE07B685B6A002B08D17B685B68B3F591
:1058A000827F09D07B680022DA6105E07B680022F4
:1058B0001A617B6800225A617B6800229A627B68C9
:1058C00093F85D30DBB2002B06D17B68002283F8B1
:1058D0005C207868FCF710F87B68022283F85D2072
:1058E0007B681B681A687B681B6822F040021A609C
:1058F0007B68DB68B3F5E06F02D90023FB6002E050
:105900004FF48053FB607B68DB68B3F5706F07D0A2
:105910007B68DB68B3F5E06F02D07B6800229A6297
:105920007B685B6803F482727B689B6803F40443C2
:105930001A437B681B6903F002031A437B685B69A7
:1059400003F001031A437B689B6903F400731A4355
:105950007B68DB6903F038031A437B681B6A03F03A
:10596000800342EA03017B689B6A03F400527B6870
:105970001B680A431A607B689B691B0C03F00402D6
:105980007B685B6A03F010031A437B685B6B03F070
:1059900008031A437B68DB6803F4706342EA03017F
:1059A000FB6803F480527B681B680A435A607B687B
:1059B0001B68DA697B681B6822F40062DA617B6825
:1059C00000221A667B68012283F85D2000231846B6
:1059D0001037BD4680BD80B588B000AFF860B960B3
:1059E0003B601346FB80FCF70DFDF861FB887B8371
:1059F000FB6893F85D30DBB2012B01D002235CE140
:105A0000BB68002B02D0FB88002B01D1012354E19D
:105A1000FB6893F85C30012B01D102234DE1FB6858
:105A2000012283F85C20FB68032283F85D20FB6879
:105A300000221A66FB68BA689A63FB68FA889A873C
:105A4000FB68FA88DA87FB6800221A64FB68002288
:105A5000A3F84420FB680022A3F84620FB6800223C
:105A60001A65FB680022DA64FB689B68B3F5004F97
:105A70000FD1FB681B681A68FB681B6822F04002A4
:105A80001A60FB681B681A68FB681B6842F4804256
:105A90001A60FB681B681B6803F04003402B07D0AB
:105AA000FB681B681A68FB681B6842F040021A60BA
:105AB000FB68DB68B3F5E06F52D9FB685B68002BCD
:105AC00002D07B8B012B45D1FB689B6B1A88FB684E
:105AD0001B68DA60FB689B6B9A1CFB689A63FB6827
